:020000040800F2
:1000000000000220592100082D200008312000089E
:1000100035200008392000083D20000800000000BD
:1000200000000000000000000000000021050008A2
:100030004120000800000000C1050008210300085D
:10004000A9210008A9210008A9210008A921000868
:10005000A9210008A9210008A9210008A921000858
:10006000A9210008A9210008A9210008A921000848
:10007000A9210008A9210008A9210008A921000838
:10008000A9210008A9210008A9210008A921000828
:10009000A9210008A9210008A9210008A921000818
:1000A000A9210008A9210008A9210008A921000808
:1000B000A9210008A9210008A9210008A9210008F8
:1000C000A9210008A9210008A9210008A9210008E8
:1000D000A921000875030008A9210008A92100082A
:1000E000A9210008A9210008A9210008A9210008C8
:1000F000A9210008A9210008A9210008A9210008B8
:10010000A9210008A9210008A9210008A9210008A7
:10011000A9210008A9210008A9210008A921000897
:10012000A9210008A9210008A9210008A921000887
:10013000A9210008A9210008A9210008A921000877
:10014000A9210008A9210008A9210008A921000867
:10015000A9210008A9210008A9210008A921000857
:10016000A9210008A9210008A9210008A921000847
:10017000A9210008A9210008A92100080000000009
:08018000A9210008A9210008D3
:1001900010B5054C237833B9044B13B10448AFF3C1
:1001A00000800123237010BD3004002000000000F7
:1001B00084230008084B10B51BB108490848AFF369
:1001C00000800848036803B910BD074B002BFBD023
:1001D000BDE81040184700BF0000000034040020B4
:1001E000842300083004002000000000844641EA17
:1001F000000313F003036DD1403A41D351F8043B9F
:1002000040F8043B51F8043B40F8043B51F8043BF0
:1002100040F8043B51F8043B40F8043B51F8043BE0
:1002200040F8043B51F8043B40F8043B51F8043BD0
:1002300040F8043B51F8043B40F8043B51F8043BC0
:1002400040F8043B51F8043B40F8043B51F8043BB0
:1002500040F8043B51F8043B40F8043B51F8043BA0
:1002600040F8043B51F8043B40F8043B51F8043B90
:1002700040F8043B51F8043B40F8043B403ABDD2FF
:10028000303211D351F8043B40F8043B51F8043BA1
:1002900040F8043B51F8043B40F8043B51F8043B60
:1002A00040F8043B103AEDD20C3205D351F8043B30
:1002B00040F8043B043AF9D2043208D0D2071CBFFC
:1002C00011F8013B00F8013B01D30B880380604625
:1002D000704700BF082A13D38B078DD010F003039B
:1002E0008AD0C3F10403D21ADB071CBF11F8013B0B
:1002F00000F8013B80D331F8023B20F8023B7BE75A
:10030000043AD9D3013A11F8013B00F8013BF9D284
:100310000B7803704B7843708B788370604670471E
:1003200008B501F01FFB012801D000F07BF908BDE2
:1003300030B583B00121202001F00EFE4FF4C065DE
:10034000009501238DF8043000228DF80620032249
:100350008DF805208DF80730054C6946204601F0E0
:10036000B3FD2946204601F0F1FD03B030BD00BFCA
:100370000014024008B540F225511A4801F0FEFD74
:1003800000282DD0174801F0F5FDC0B2164B1B8890
:1003900013F4004F24D103F4804292B262B10A28D0
:1003A00003D00022104B1A8008BD6FEA43436FEA66
:1003B00053430D4A138008BD0D2804D143F48043F4
:1003C000094A138008BDC3F30D020849885401335C
:1003D0009BB2054A1380C72B02D90022024B1A8018
:1003E00008BD00BF00100140140500204C0400208F
:1003F00000F1080343604FF0FF328260C360036185
:1004000000230360704700BF00230361704700BFF3
:1004100043684B609A688A609A6851609960086185
:10042000036801330360704730B40D68B5F1FF3FD6
:1004300001D1026907E000F1080200E01A465368A2
:100440001C68A542FAD253684B6099608A6051607B
:10045000086103680133036030BC70470369426878
:10046000816891608268416851605A68904201D108
:1004700082685A600022026118680138186070476B
:100480000B4B1B68B3F1FF3F08D04FF0500383F3D1
:100490001188BFF36F8FBFF34F8FFEE74FF050030C
:1004A00083F31188BFF36F8FBFF34F8FFEE700BF59
:1004B0000000002006480068006880F3088862B6E3
:1004C00061B6BFF34F8FBFF36F8F00DF00BF000037
:1004D00008ED00E0DFF80C00016841F470010160F4
:1004E0007047000088ED00E04FF0807340F8043C56
:1004F00021F0010140F8081C054B40F80C3C40F885
:10050000202C6FF0020340F8243C4438704700BFB1
:10051000810400080000000000000000000000004E
:10052000074B19680868B0E8F04F80F30988BFF3FB
:100530006F8F4FF0000080F311887047AFF3008099
:100540000C3201204FF0500383F31188BFF36F8FFB
:10055000BFF34F8F0A4A136801331360012B0DD18B
:10056000084B1B6813F0FF0F08D04FF0500383F3C4
:100570001188BFF36F8FBFF34F8FFEE7704700BF47
:100580000000002004ED00E0094B1B6843B94FF068
:10059000500383F31188BFF36F8FBFF34F8FFEE7D4
:1005A000013B034A13600BB983F31188704700BF06
:1005B000000000200000000000000000000000001B
:1005C000EFF30980BFF36F8F154B1A681EF0100F01
:1005D00008BF20ED108A20E9F04F10604DF8043D6F
:1005E0004FF0500080F31188BFF34F8FBFF36F8F30
:1005F00001F098F84FF0000080F3118808BC1968EA
:100600000868B0E8F04F1EF0100F08BFB0EC108A79
:1006100080F30988BFF36F8F704700BFAFF300808E
:100620000C32012008B54FF0500383F31188BFF35B
:100630006F8FBFF34F8F00F001FF18B14FF0805262
:10064000024B1A60002383F3118808BD04ED00E01B
:10065000064B1B68064AA2FB03239B09013B054A84
:1006600013600722044B1A60704700BF040000208B
:10067000D34D621014E000E010E000E0314B1A6846
:10068000314B9A4208D14FF0500383F31188BFF3E6
:100690006F8FBFF34F8FFEE72A4B1A682B4B9A429E
:1006A00008D14FF0500383F31188BFF36F8FBFF36E
:1006B0004F8FFEE700B583B0254B1A78D2B2019276
:1006C000FF221A701B78DBB28DF803309DF80330DF
:1006D00003F050031F4A137007221F4B1A6009E0F2
:1006E0001D4A1368013B13609DF803305B00DBB2C9
:1006F0008DF803309DF8033013F0800FF0D1164AC7
:1007000013681B0203F4E0631360019BDBB2104A21
:100710001370124B1A6842F470021A601A6842F0A1
:1007200070421A60FFF794FF00220D4B1A60FFF72A
:10073000D1FE0C4A136843F040431360FFF7BAFE42
:10074000FFF79EFE00ED00E071C20F4170C20F4145
:1007500000E400E0160500201805002020ED00E070
:100760000000002034EF00E0EFF305830F2B0FD9DA
:10077000104A9B5CDBB2104A1278934208D24FF0C9
:10078000500383F31188BFF36F8FBFF34F8FFEE7E2
:100790000A4B1B6803F4E063094A1268934208D9C4
:1007A0004FF0500383F31188BFF36F8FBFF34F8F68
:1007B000FEE77047F0E300E0160500200CED00E0D6
:1007C00018050020124A12F0070F07D0D11D21F0A2
:1007D0000701C1F5963313440A4601E04FF49633FE
:1007E0000C480260002141601344083B23F00703DA
:1007F0000948036059601960991A51601360074BEA
:100800001960074B19604FF00042064B1A607047A1
:100810002C05002024050020200500203031012077
:100820001C0500202C310120134B00E013461A68F0
:100830008242FBD310B45C681919884203D1416825
:10084000214459601846446801198A420CD10B4969
:1008500009688A4206D05268224442601A681268C7
:10086000026002E0016000E00260984200D018607F
:100870005DF8044B704700BF2405002020050020D0
:1008800070B5044600F0CCFD394B1B680BB9FFF77F
:1008900099FF384B1B681C4253D194B1083414F0B3
:1008A000070F0ED024F00704083404F0070343B107
:1008B0004FF0500383F31188BFF36F8FBFF34F8F57
:1008C000FEE7002C3FD02C4B1B689C423DD82B4BA5
:1008D0001D6801E02B4615466A68944202D92A68D1
:1008E000002AF7D1224A1268954230D01E68083695
:1008F0002A681A606B681B1B102B10D9281910F07E
:10090000070F08D04FF0500383F31188BFF36F8FA8
:10091000BFF34F8FFEE743606C60FFF785FF6A68A7
:1009200015490B689B1A0B60154909688B4201D267
:1009300013490B600F4B1B681A436A6000232B603E
:1009400006E0002604E0002602E0002600E0002683
:1009500000F006FE16F0070F08D04FF0500383F3A7
:100960001188BFF36F8FBFF34F8FFEE7304670BD26
:10097000200500202C3101201C050020240500202A
:1009800030310120A0B338B50346A0F1080550F876
:10099000042C1849096812EA010408D14FF05003E9
:1009A00083F31188BFF36F8FBFF34F8FFEE750F8CB
:1009B000080C40B14FF0500383F31188BFF36F8FE1
:1009C000BFF34F8FFEE794B188B91C4622EA0102BB
:1009D00043F8042C00F024FD54F8043C064A116846
:1009E0000B4413602846FFF71FFF00F0B9FD38BD28
:1009F000704700BF2C3101201C05002010B50446B3
:100A0000FFF7A0FDA26BE36B9A4201D1012400E045
:100A10000024FFF7B9FD204610BD00BF10B5044605
:100A2000FFF790FDA36B0BB9012400E00024FFF752
:100A3000ABFD204610BD00BF70B504461646856B61
:100A4000026C3AB9036843BB406800F0EFFF002333
:100A5000636029E06EB98068FFF7C8FBA268236C69
:100A60001344A3606268934219D32368A3600020F3
:100A70001AE0C068FFF7BAFB236C5B42E2681A44D5
:100A8000E26021688A4202D262681344E360022E67
:100A900007D145B1013D002006E0002004E0002020
:100AA00002E0002000E000200135A56370BD00BF1A
:100AB000026C72B110B50346C4681444C460406847
:100AC000844201D31868D8600846D968FFF78EFBC6
:100AD00010BD704738B50546FFF734FD95F8454021
:100AE00064B20AE06B6A53B105F1240000F098FE8D
:100AF00008B100F031FF013C64B2002CF2DCFF23AE
:100B000085F84530FFF740FDFFF71CFD95F84440A0
:100B100064B20AE02B6953B105F1100000F080FEC9
:100B200008B100F019FF013C64B2002CF2DCFF2395
:100B300085F84430FFF728FD38BD00BF38B540B90F
:100B40004FF0500383F31188BFF36F8FBFF34F8FC4
:100B5000FEE704460D46FFF7F5FC2168E26B236CC7
:100B600003FB021060600020A063A160013A02FB59
:100B70000313E360FF2384F8443084F845307DB9E3
:100B80002369ABB104F1100000F04AFE80B14FF0D0
:100B90008052094B1A60BFF34F8FBFF36F8F07E08E
:100BA00004F11000FFF724FC04F12400FFF720FCFF
:100BB000FFF7EAFC012038BD04ED00E038B51D4622
:100BC000049C0B4609B9246000E02260E0632364C2
:100BD00001212046FFF7B2FF84F84C5038BD00BF1A
:100BE00040B94FF0500383F31188BFF36F8FBFF309
:100BF0004F8FFEE7F0B583B0034611B101FB00F063
:100C000000E000201D4617460C465030FFF738FE26
:100C1000064638B100903B4600F150022146284676
:100C2000FFF7CCFF304603B0F0BD00BFF0B585B094
:100C3000019240B94FF0500383F31188BFF36F8FD7
:100C4000BFF34F8FFEE7044619B9026C1AB90122AF
:100C500002E0012200E0002242B94FF0500383F38A
:100C60001188BFF36F8FBFF34F8FFEE7022B03D1C5
:100C7000E26B012A02D102E0012200E0002242B927
:100C80004FF0500383F31188BFF36F8FBFF34F8F83
:100C9000FEE71D460E4600F065FE18B9019B1BB924
:100CA000012302E0012300E0002343B94FF0500389
:100CB00083F31188BFF36F8FBFF34F8FFEE70027D9
:100CC000FFF740FCA26BE36B9A4201D3022D21D1C6
:100CD0002A4631462046FFF7AFFE636A6BB104F146
:100CE000240000F09DFD88B14FF08052324B1A6015
:100CF000BFF34F8FBFF36F8F08E038B14FF08052D2
:100D00002D4B1A60BFF34F8FBFF36F8FFFF73CFC83
:100D100001204EE0019B1BB9FFF736FC002048E0A4
:100D20001FB902A800F0C2FD0127FFF72DFC00F05B
:100D300077FBFFF707FC94F844305BB2B3F1FF3F59
:100D400002D1002384F8443094F845305BB2B3F10B
:100D5000FF3F02D1002384F84530FFF715FC01A9BD
:100D600002A800F0B9FDF0B92046FFF747FEA0B198
:100D7000019904F1100000F01FFD2046FFF7AAFEC4
:100D800000F0EEFB00289BD14FF080520A4B1A6016
:100D9000BFF34F8FBFF36F8F92E72046FFF79AFEA6
:100DA00000F0DEFB8CE72046FFF794FE00F0D8FB56
:100DB000002005B0F0BD00BF04ED00E02DE9F843D0
:100DC00040B94FF0500383F31188BFF36F8FBFF327
:100DD0004F8FFEE7044619B9006C18B9012002E0F4
:100DE000012000E0002040B94FF0500383F3118848
:100DF000BFF36F8FBFF34F8FFEE7022B03D1E06B82
:100E0000012802D102E0012000E0002040B94FF0AB
:100E1000500383F31188BFF36F8FBFF34F8FFEE74B
:100E20001F4690468946FFF79FFCEFF311864FF06F
:100E3000500383F31188BFF36F8FBFF34F8FA26B03
:100E4000E36B9A4201D3022F1ED194F845506DB244
:100E50003A4649462046FFF7EFFDB5F1FF3F0DD179
:100E6000636A9BB104F1240000F0DAFC80B1B8F1B0
:100E7000000F0FD00120C8F800000CE06B1C5BB223
:100E800084F84530012006E0002004E0012002E063
:100E9000012000E0012086F31188BDE8F88300BF3F
:100EA0002DE9F04184B0019240B94FF0500383F333
:100EB0001188BFF36F8FBFF34F8FFEE7044619B958
:100EC000026C1AB9012202E0012200E0002242B9BC
:100ED0004FF0500383F31188BFF36F8FBFF34F8F31
:100EE000FEE71F46884600F03DFD18B9019B1BB97F
:100EF000012302E0012300E0002343B94FF0500337
:100F000083F31188BFF36F8FBFF34F8FFEE7002687
:100F1000FFF718FBA56B85B3E66841462046FFF74F
:100F2000C7FDB7B9013DA563236813B900F0D8FD2B
:100F300060602369EBB104F1100000F071FCC0B1F6
:100F40004FF080523D4B1A60BFF34F8FBFF36F8F4E
:100F50000FE0E660636A63B104F1240000F060FC16
:100F600038B14FF08052354B1A60BFF34F8FBFF34B
:100F70006F8FFFF709FB01205DE0019B1BB9FFF7B5
:100F800003FB002057E01EB902A800F08FFC0126E9
:100F9000FFF7FAFA00F044FAFFF7D4FA94F8443075
:100FA0005BB2B3F1FF3F02D1002384F8443094F8E0
:100FB00045305BB2B3F1FF3F02D1002384F84530E6
:100FC000FFF7E2FA01A902A800F086FC38BB204630
:100FD000FFF724FDE8B1236833B9FFF7B3FA60687F
:100FE00000F0D0FCFFF7D0FA019904F1240000F0E2
:100FF000E3FB2046FFF76EFD00F0B2FA002887D130
:101000004FF080520D4B1A60BFF34F8FBFF36F8FBD
:101010007EE72046FFF75EFD00F0A2FA78E7204663
:10102000FFF758FD00F09CFA2046FFF7F7FC002878
:101030003FF46EAF002004B0BDE8F08104ED00E0A5
:1010400000230BE0074A52F8332032B9054A42F830
:10105000331002EBC303586070470133072BF1D9FB
:10106000704700BF3431012070B504460D46164666
:10107000FFF768FA94F844305BB2B3F1FF3F02D156
:10108000002384F8443094F845305BB2B3F1FF3F5D
:1010900002D1002384F84530FFF776FAA36B2BB911
:1010A0003246294604F1240000F09EFB2046FFF75B
:1010B00011FD70BD0A4B1B681B680BB9012300E0D2
:1010C000002323B14FF0FF32064B1A607047044BE8
:1010D0001B68DB68DB685A68024B1A60704700BF08
:1010E000783101202C32012010B50446006BFFF747
:1010F00049FC2046FFF746FC10BD00BF2DE9F04734
:1011000081460D4617469A46089EDDF824800A9CC3
:101110009200A521206B01F071F8236B07F180424A
:10112000013A03EB820727F00707002306E0E95C9A
:10113000E21882F83410EA5C12B10133092BF6D9B7
:10114000002384F83D30042E00D90426E662A6640C
:101150000025E564201DFFF757F904F11800FFF79B
:1011600053F92461C6F10506A6616462256584F819
:101170005450524649463846FFF7B6F92060B8F158
:10118000000F01D0C8F80040BDE8F08738B5002452
:1011900007E004EB840293000E481844FFF728F997
:1011A0000134042CF5D90C4D2846FFF721F90B4CDE
:1011B0002046FFF71DF90A48FFF71AF90948FFF71B
:1011C00017F90948FFF714F9084B1D60084B1C601C
:1011D00038BD00BF9C31012034320120483201204B
:1011E00010320120803101205C3201207831012051
:1011F0009431012010B50446FFF7A4F9214A136881
:1012000001331360204B1B683BB91F4B1C601368F4
:10121000012B0DD1FFF7BAFF0AE01C4B1B683BB94D
:10122000194B1B68DA6AE36A9A4201D8164B1C60B4
:10123000174A1368013313602364E36A012202FA38
:1012400003F1144802680A43026003EB83039A0027
:10125000211D11481044FFF7DBF8FFF795F90B4B00
:101260001B686BB1084B1B68DA6AE36A9A4207D2C3
:101270004FF08052094B1A60BFF34F8FBFF36F8F4F
:1012800010BD00BF083201200C3201207C3101204A
:1012900030320120703201209C31012004ED00E049
:1012A00070B504460E461D4B1D681D4B1868043072
:1012B000FFF7D4F850B91A4B1B68DA6A012303FA16
:1012C00002F218490B6823EA02030B60B4F1FF3FF6
:1012D00007D136B1124B196804311348FFF798F85B
:1012E00070BD2C440E4B1B685C60A54207D90F4BA8
:1012F00018680B4B19680431FFF796F870BD0C4B5A
:101300001868074B19680431FFF78EF8094B1B6802
:101310009C4201D2074B1C6070BD00BF28320120E7
:101320000C320120703201205C3201209431012006
:10133000783101202C3201202DE9F04385B006469A
:101340000F46154698469000FFF79AFA60B181461D
:101350005820FFF795FA044610B1C0F8309004E029
:101360004846FFF70FFB00E000248CB100230393F5
:1013700002940D9B01930C9B009343462A463946E9
:101380003046FFF7BBFE2046FFF734FF012001E0A7
:101390004FF0FF3005B0BDE8F08300BF00B583B06B
:1013A000194B019300230093822218491848FFF734
:1013B000C3FF012801D100F001FC012814D14FF036
:1013C000500383F31188BFF36F8FBFF34F8F4FF03C
:1013D000FF32104B1A6001220F4B1A6000220F4B94
:1013E0001A60FFF74BF90BE0B0F1FF3F08D14FF067
:1013F000500383F31188BFF36F8FBFF34F8FFEE766
:1014000003B05DF804FB00BF243201209C230008D8
:10141000FD1600082C3201207C31012028320120E9
:10142000024A136801331360704700BF0032012085
:10143000014B1868704700BF28320120F8B53D4BBA
:101440001B68002B69D13C4B1D6801351D60C5B977
:101450003A4B1B681B6843B14FF0500383F311886C
:10146000BFF36F8FBFF34F8FFEE7344A1168344BE1
:10147000186810601960334A136801331360FFF76E
:1014800019FE314B1B689D4203D200243AE001242F
:1014900000E00024294B1B681B680BB9012300E006
:1014A000002323B14FF0FF32274B1A602AE0234B71
:1014B0001B68DB68DE6873689D4202D2224A1360B3
:1014C00020E0371D3846FEF7C9FFB36A1BB106F1AD
:1014D0001800FEF7C3FFF36A012202FA03F11B486A
:1014E00002680A43026003EB83039A0039461848F6
:1014F0001044FEF78DFFF26A164B1B68DB6A9A42B6
:10150000C5D2C7E7134B1B68DB6A03EB83039A0062
:101510000F4B9B58012B06D806E00F4A1368013386
:101520001360002400E001240C4B1B6803B101246C
:101530002046F8BD003201202832012078310120F8
:1015400094310120743101202C32012070320120AD
:101550009C3101200C32012098310120743201208D
:1015600038B5344B1B6843B94FF0500383F31188EF
:10157000BFF36F8FBFF34F8FFEE7FEF7E3FF2D4BF7
:101580001A68013A1A601B68002B4CD12A4B1B6861
:1015900033BB00244AE0294BDB68DC6804F1180007
:1015A000FEF75CFF251D2846FEF758FFE36A01227F
:1015B00002FA03F1224802680A43026003EB830344
:1015C0009A0029461F481044FEF722FFE26A1E4B8C
:1015D0001B68DB6A9A4204D301221C4B1A6000E0AC
:1015E0000024164B1B68002BD5D10CB1FFF762FD10
:1015F000174B1C6854B1FFF721FF10B10122134BA8
:101600001A60013CF7D10022114B1A600F4B1B6886
:101610005BB14FF080520F4B1A60BFF34F8FBFF397
:101620006F8F012402E0002400E00024FEF7ACFFED
:10163000204638BD0032012008320120103201203E
:10164000703201209C3101200C32012074320120C3
:101650009831012004ED00E010B5A8B10446104B0C
:101660001B6843B14FF0500383F31188BFF36F8FB2
:10167000BFF34F8FFEE7FFF7D3FE00212046FFF7B1
:101680000FFEFFF76DFF00E0002038B94FF08052E9
:10169000044B1A60BFF34F8FBFF36F8F10BD00BFB5
:1016A0000032012004ED00E010B51BE0FFF7B8FEAA
:1016B0000F4B1C68FFF754FFA4B1FEF743FF0C4B20
:1016C000DB68DC68201DFEF7C9FE0A4A1368013B8F
:1016D0001360094A1368013B1360FEF755FF20466B
:1016E000FFF702FD044B1B68002BDFD110BD00BFCC
:1016F00080310120083201200432012008B5FFF7B3
:10170000D3FF064B1B68012BF9D94FF08052044BD5
:101710001A60BFF34F8FBFF36F8FF0E79C3101204A
:1017200004ED00E01F4B1B681BB101221E4B1A6029
:10173000704700221C4B1A601C4B1B68B3FA83F3E2
:10174000DBB2C3F11F0303EB83018A0018498A58F7
:1017500042B94FF0500383F31188BFF36F8FBFF38B
:101760004F8FFEE730B4124D9900CA1890002844FC
:1017700042685468446019448A0008322A449442FA
:1017800005D1606803EB83018A002A44506003EBB3
:1017900083039A00064B1A445368DA68054B1A60B3
:1017A00030BC7047003201207432012070320120B9
:1017B0009C3101200C32012040B94FF0500383F3DB
:1017C0001188BFF36F8FBFF34F8FFEE710B50C4644
:1017D000044B19681831FEF727FE01212046FFF758
:1017E0005FFD10BD0C32012038B540B94FF05003F9
:1017F00083F31188BFF36F8FBFF34F8FFEE70C4663
:101800001546064A11681831FEF702FE0DB14FF079
:10181000FF3429462046FFF743FD38BD0C32012036
:1018200038B5C368DC6844B94FF0500383F31188BE
:10183000BFF36F8FBFF34F8FFEE704F11805284603
:10184000FEF70CFE134B1B68A3B9251D2846FEF7B7
:1018500005FEE36A012202FA03F10F4802680A4317
:10186000026003EB83039A0029460C481044FEF7FC
:10187000CFFD03E029460A48FEF7CAFDE26A094B9C
:101880001B68DB6A9A4203D90120074B186038BDF8
:10189000002038BD00320120703201209C3101202F
:1018A000103201200C3201207432012040B94FF077
:1018B000500383F31188BFF36F8FBFF34F8FFEE7A1
:1018C000034A12680260034A12684260704700BF10
:1018D000743101202832012038B540B94FF050034F
:1018E00083F31188BFF36F8FBFF34F8FFEE704467A
:1018F00041B94FF0500383F31188BFF36F8FBFF3EB
:101900004F8FFEE70D46FEF71DFE114B19682A6842
:10191000B2F1FF3F13D020680E4B1B68984202D0F3
:10192000636899420DD26368C81A82420BD95B1A68
:1019300013442B602046FFF7B9FF002404E0002485
:1019400002E0012400E00124FEF71EFE204638BD1F
:1019500028320120743101200122014B1A607047A6
:1019600074320120054B1B6823B1054B1B681BB962
:101970000220704701207047002070477C31012011
:101980000032012000284AD038B50246C36A2449F3
:101990000968C96A8B4241D28169002905DB204967
:1019A0000968C96AC1F105018161506903EB8303CC
:1019B00099001C4B1944884201D1012300E0002307
:1019C00043B31446151D2846FEF748FD70B9E36A77
:1019D00003EB83018A0013498A583AB9012202FABB
:1019E00003F311490A6822EA03030B600C4B1B68DE
:1019F000DB6AE362012202FA03F10B4802680A4340
:101A0000026003EB83039A00294606481044FEF760
:101A1000FFFC38BD024B1B68DB6AD36238BD7047E0
:101A20000C3201209C3101207032012000284BD063
:101A300038B50346274A1268904208D04FF0500349
:101A400083F31188BFF36F8FBFF34F8FFEE7C26C34
:101A500042B94FF0500383F31188BFF36F8FBFF388
:101A60004F8FFEE7013AC264C06A996C88422DD05C
:101A700072BB1C461D1D2846FEF7F0FC70B9E26AD9
:101A800002EB82018B001449CB583BB9012303FAC6
:101A900002F212490B6823EA02030B60A36CE362B3
:101AA000C3F10502A261012404FA03F00B490A689C
:101AB00002430A6003EB83039A0029460648104458
:101AC000FEF7A6FC204638BD00207047002038BD38
:101AD000002038BD0C3201209C31012070320120E1
:101AE000054B1B6823B1044B1A68D36C0133D364D4
:101AF000014B1868704700BF0C320120064B1A6872
:101B00001368B3FA83F35B09036013B9D3681868E9
:101B100070470020704700BF7832012008B541604F
:101B2000006191420AD8D21A83699A4211D2011DEA
:101B30000A4B1868FEF778FC002008BD9A4201D2D3
:101B4000994208D2011D064B1868FEF76DFC002073
:101B500008BD012008BD012008BD00BFAC32012036
:101B60007832012038B5FEF7EDFC0E4B1B68B3B997
:101B70000D4D2846FEF73CFC0C4C2046FEF738FC89
:101B80000B4B1D600B4B1C6000220C210A20FFF741
:101B900027F8044B186010B10749FFF751FAFEF718
:101BA000F3FC38BDA83201207C32012090320120A4
:101BB00078320120AC320120A423000800B583B0A4
:101BC000FFF7D0FF0E4B1B685BB10E4B0193022356
:101BD000009300234FF482720B490C48FFF7ACFBD3
:101BE00000E0002040B94FF0500383F31188BFF3A9
:101BF0006F8FBFF34F8FFEE703B05DF804FB00BFAC
:101C0000A8320120B0320120AC230008B11E000828
:101C100040B94FF0500383F31188BFF36F8FBFF3C8
:101C20004F8FFEE730B585B015460446124A10685E
:101C3000F0B11A46019102950394052913DCFFF7D0
:101C400091FE022807D10023089A01A90A480068DA
:101C5000FEF7ECFF0DE000231A4601A906480068D4
:101C6000FEF7E4FF05E0002301A9FFF7A7F800E075
:101C7000002005B030BD00BFA832012070B582B091
:101C800029E0DB681E68DC68251D2846FEF7E6FBB8
:101C9000636A20469847E369012B1CD1A36933444A
:101CA0009E4207D2636024612946114B1868FEF7F3
:101CB000BBFB10E0002100910B4632462046FFF7A7
:101CC000A7FF40B94FF0500383F31188BFF36F8F24
:101CD000BFF34F8FFEE7064B1B681A68002AD0D16E
:101CE000044A106802490860136002B070BD00BF6A
:101CF00078320120AC32012038B50546FFF798FB59
:101D00000446074B1B68984204D2FFF7B7FF012334
:101D10002B6001E000232B60014B1C60204638BD86
:101D2000A432012070B582B005460E46134B1B68E5
:101D3000DB68DC68201DFEF791FBE369012B18D1FD
:101D4000A1692B46324629442046FFF7E7FE80B1C1
:101D5000002100910B462A462046FFF759FF40B963
:101D60004FF0500383F31188BFF36F8FBFF34F8F92
:101D7000FEE7636A2046984702B070BD78320120C2
:101D800070B582B006460C46FFF74AFB01A8FFF784
:101D9000B3FF019B1BBB054644B9B04206D3FFF716
:101DA000DFFB29463046FFF7BDFF1AE02CB10E4B92
:101DB0001B681C68B4FA84F464092246711B0B4B3F
:101DC0001868FFF751F9FFF7CBFB50B94FF080527D
:101DD000074B1A60BFF34F8FBFF36F8F01E0FFF720
:101DE000BFFB02B070BD00BFAC320120A8320120A1
:101DF00004ED00E030B587B04DE0039B002B4ADBDB
:101E0000059C636913B1201DFEF728FB02A8FFF7AC
:101E100073FF039B092B3ED8DFE803F00505053D62
:101E2000273A05053D270499A5690B460246294432
:101E30002046FFF773FE70B3636A20469847E36954
:101E4000012B28D1A269002100910B46049802447D
:101E50002046FFF7DDFEF0B94FF0500383F3118801
:101E6000BFF36F8FBFF34F8FFEE70499A16141B9B4
:101E70004FF0500383F31188BFF36F8FBFF34F8F81
:101E8000FEE70346024601442046FFF747FE02E014
:101E90002046FEF777FD00231A4603A90348006891
:101EA000FEF7FEFF0028A8D107B030BDA832012000
:101EB00000B583B001A8FFF721FE0199FFF760FF8D
:101EC000FFF798FFF6E700BF70B400233AE0012265
:101ED0009A400C68A24334D104685D000322AA40F2
:101EE000D2431440046006680C79AC40344304606B
:101EF0000C79013CE4B2012C15D884682240826040
:101F000084684A79AA402243826046689AB20124D2
:101F1000944026EA0404446046688C7904FA02F28C
:101F200092B232434260C4689AB256000322B24071
:101F300024EA0202C260C668CC7904FA05F2324390
:101F4000C26001330F2BC2D970BC70470183704748
:101F5000436959404161704721B1054B1A6B1043E9
:101F600018637047024A136B23EA0000106370473E
:101F7000003802408088C0F30800704710B4C1F3F5
:101F8000421201F01F040123A340012A03D18289D8
:101F900092B2134008E0022A03D1028A92B213409F
:101FA00002E0828A92B21340090A012202FA01F188
:101FB000028892B2114013B119B9002002E000204A
:101FC00000E001205DF8044B704700BF08B5084CE5
:101FD0004FF400712046FFF7BBFF4FF480612046AD
:101FE000FFF7B6FF4FF47A70FFF736FBEFE700BF5D
:101FF0000014024000B583B0FEF79AF9084B019334
:102000000423009300234FF4007206490648FFF7AB
:1020100093F9FFF7C3F9002003B05DF804FB00BF9C
:10202000B4320120B4230008CD1F0008704700BF60
:10203000FEE700BFFEE700BFFEE700BFFEE700BF10
:10204000704700BF82B00023019300932A4A1368AF
:1020500043F480331360284B1B6803F40033009370
:10206000019B01330193009B1BB9019BB3F5A04F6A
:10207000F1D1214B1B6813F4003F02D001230093E0
:1020800001E000230093009B012B32D11A4B1A6C04
:1020900042F080521A6419490A6842F440420A60C8
:1020A0009A689A609A6842F400429A609A6842F488
:1020B000A0529A60124A5A601A6842F080721A60FE
:1020C0000D4B1B6813F0007FFAD040F205720D4BE8
:1020D0001A60A3F580639A6822F003029A609A68F6
:1020E00042F002029A60044B9B6803F00C03082B39
:1020F000F9D102B0704700BF0038024000700040C4
:1021000008544007003C024010B5104CD4F8883009
:1021100043F47003C4F888300D4B1A6842F0010292
:102120001A60002199601A6822F0847222F48032C9
:102130001A60084A5A601A6822F480221A60D9602C
:10214000FFF780FF4FF00063A36010BD00ED00E0DB
:102150000038024010300024DFF834D0002103E0C2
:102160000C4B5B58435004310B480C4B42189A42BD
:10217000F6D30B4A02E0002342F8043B094B9A4293
:10218000F9D3FFF7C1FF00F011F8FFF733FF7047F5
:1021900000000220D02300080000002030040020AE
:1021A00030040020B8320120FEE7000070B50F4E69
:1021B0000F4D761BB61018BF002405D0013455F81A
:1021C000043B9847A642F9D10A4E0B4D761B00F00E
:1021D000D9F8B61018BF002406D0013455F8043BD6
:1021E0009847A642F9D170BD70BD00BFC423000856
:1021F000C4230008CC230008C423000870B484075B
:1022000046D0541E002A41D0CDB2034602E0621EE1
:10221000E4B3144603F8015B9A07F8D1032C2ED9D6
:10222000CDB245EA05250F2C45EA054519D903F13C
:1022300010022646103E0F2E42F8105C42F80C5C4D
:1022400042F8085C42F8045C02F11002F2D8A4F1F2
:10225000100222F00F0204F00F041032032C13447A
:102260000DD91E462246043A032A46F8045BFAD8E2
:10227000221F22F003020432134404F003042CB1A1
:10228000C9B21C4403F8011BA342FBD170BC7047C8
:1022900014460346C2E700BF024B13B1024800F0E8
:1022A00005B8704700000000B9220008002301466D
:1022B0001A46184600F014B838B5074D074C2C1BC9
:1022C000A41005D0013C55F8043D9847002CF9D1E5
:1022D000BDE8384000F05CB8D0230008CC230008EB
:1022E0002DE9F047254C2568D5F848410646884633
:1022F00092469946C4B360681F2817DC431C76B128
:1023000004EB80050122C5F888A0D4F8881182402A
:102310001143022EC4F88811C5F808911ED002306E
:10232000636044F820800020BDE8F087144B03B3BD
:102330004FF4C870AFF300800446D0B1D5F84831EF
:10234000002780E88800C5F8484138460123C4F8D2
:102350008871C4F88C71002EE1D0D1E7D4F88C11CB
:102360000A43C4F88C21DAE705F5A674C5F848419C
:10237000C1E74FF0FF30BDE8F08700BFC023000881
:1023800000000000F8B500BFF8BC08BC9E467047CE
:0C239000F8B500BFF8BC08BC9E467047C2
:10239C0049444C4500000000546D7251000000008F
:1023AC00546D7220537663006170705F7461736B4F
:0823BC003100000008000020C0
:0823C40099220008B501000890
:0423CC009101000873
:1023D000AAAAAAAA007A030A00000000F4020020B8
:1023E0005C030020C4030020000000000000000087
:1023F00000000000000000000000000000000000DD
:1024000000000000000000000000000000000000CC
:1024100000000000000000000000000000000000BC
:1024200000000000000000000000000000000000AC
:10243000000000000000000000000000000000009C
:10244000000000000000000000000000000000008C
:10245000000000000000000000000000000000007C
:10246000000000000000000000000000000000006C
:10247000000000000000000000000000000000005C
:1024800001000000000000000E33CDAB34126DE6F9
:10249000ECDE05000B000000000000000000000062
:1024A000000000000000000000000000000000002C
:1024B000000000000000000000000000000000001C
:1024C000000000000000000000000000000000000C
:1024D00000000000000000000000000000000000FC
:040000050800215975
:00000001FF
